:040000008A11112828
:10000800FE00030EF0000408F1000A08F200831253
:1000180003137F08F3008A11A1288A111328F50118
:10002800F601F70183018A11BC286828831203139B
:10003800051C22280230F4007408F600851C2828C4
:100048000330F4007408F600051D0800F601F60AEE
:10005800080083120313051908007508031D3928C1
:10006800FF30F4007408F5003A28F501750895008A
:10007800F60108007708031D08000C30F400740826
:10008800F700750A03194C280130F4007408F507C5
:10009800750883120313950005180800F601080077
:1000A8007708031D08000C30F4007408F700750881
:1000B800031960280130F5027508831203139500AF
:1000C80085180800F60108007608003A03191A286E
:1000D800013A03192D28033A03193E28013A031956
:1000E80054287628080083160317880183160313FB
:1000F8008701831203130711FF308316031385004A
:10010800D33081008B160B118B17831203139210B7
:100118001214F930831603139200831203139712F3
:1001280017129715171597101710971317139D1572
:100138001D1595018C10121508008B1A0B1DAA2885
:100148000B1177080319AA280130F7028C1CB02874
:100158008C1083160313870173088312FF0072083B
:100168008A0071088400700E8300FE0E7E0E09005E
:0E0178008A1177208A118A1119208A11BF2856
:04400E00F2E0FFFFDE
:00000001FF
